:100000000C945D000C9485000C9485000C94850084
:100010000C9485000C9485000C9485000C9485004C
:100020000C9485000C9485000C9485000C9485003C
:100030000C9485000C9485000C9485000C9485002C
:100040000C9445040C9485000C94FD060C942F0729
:100050000C9485000C9485000C9485000C9485000C
:100060000C9485000C94850000000008000201003B
:100070000003040700000000000000000102040863
:100080001020408001020408102001020408102002
:10009000040404040404040402020202020203032E
:1000A0000303030300000000250028002B000000CC
:1000B0000000240027002A005F0711241FBECFEF95
:1000C000D8E0DEBFCDBF13E0A0E0B1E0E0E3FAE1AD
:1000D00002C005900D92AC39B107D9F724E0ACE924
:1000E000B3E001C01D92AD36B207E1F710E0CAEBF4
:1000F000D0E004C02297FE010E94EB0BC83BD10761
:10010000C9F70E9498090C94160D0C9400000E94E7
:100110000A0381E00E94160383E080939E0380E639
:1001200080939F0395E090939C0380939D03089593
:1001300060E08AE00E9482058AE090E00E94DA0492
:1001400061E08AE00C94820560E08AE00E9482050A
:1001500061E070E080E090E00E94B20461E08AE03B
:100160000C948205462FDB01E0E1F0E09A2F941B0E
:100170009817A0F49D913E2F2227EE0FEF2FEE1F30
:10018000FF0BF195E927FF27EE0FFF1FEA5FFE4FF8
:100190000190F081E02DE227F327E8CFCF01880F0F
:1001A000991F08950F931F93CF93DF93182F062F56
:1001B000EB018C2F801B811720F489910E94300362
:1001C000F8CFDF91CF911F910F910895CF93DF93D7
:1001D00000D000D0CDB7DEB780919E038983809197
:1001E0009F038A836EE973E082E00E94B2009B83E2
:1001F0008C830E94980060E08AE00E948205BE0124
:100200006F5F7F4F84E00E94D20061E08AE00E942D
:1002100082050F900F900F900F90DF91CF9108956E
:10022000AF92BF92CF92DF92EF92FF920F931F9304
:10023000CF93DF931F92CDB7DEB7C82E8B01880F07
:10024000880F880F8C5F90E00E94EF0B5C01FC012F
:10025000108281E081838DE382838EE68383FC2C90
:1002600044E0FF2011F1B801F6E0FF9E600D711D22
:10027000112466507109FB0180E09191582F540FB1
:10028000D501A50FB11D9C938F5F8630B1F74983CF
:100290000E94B200498126E0240FF501E20FF11D12
:1002A00090838183485FFA94DCCF0E9498007501A7
:1002B00084E0E80EF11C00E010E0D12C0C151D05C7
:1002C00024F5802F880F880F880F8058F5018083D0
:1002D000B50182E00E94B200F5019283838360E061
:1002E0008AE00E948205B50184E00E94D200B70135
:1002F00088E00E94D20061E08AE00E9482050F5FE0
:100300001F4FF8E0EF0EF11CD9CFC5010F90DF9120
:10031000CF911F910F91FF90EF90DF90CF90BF9002
:10032000AF900C94870CEF92FF920F931F93CF9393
:10033000DF9300D01F92CDB7DEB7122F082F7C01BC
:100340008E2D801B861760F4F70181917F014A830F
:100350005B8369830E94300369815B814A81F0CFAE
:10036000042F7A018E2D801B811738F48FEF0E94A5
:100370003503F70181937F01F5CF0F900F900F9018
:10038000DF91CF911F910F91FF90EF900895CF9241
:10039000DF92EF92FF920F931F93CF93DF9300D0E2
:1003A00000D000D0CDB7DEB7C62E813011F484E086
:1003B0000BC0823011F486E007C0833011F488E06E
:1003C00003C0843019F48AE08A8319824D835E83E6
:1003D0000E9498004D81042F5E81152FE12CF12C95
:1003E000D12CEC14FD041CF58E2D880F880F880F7E
:1003F00080588983BE016F5F7F4F82E00E94B20008
:100400009B838C8360E08AE00E94820528E0A8013B
:1004100064E0CE0101960E94930161E08AE00E94AF
:1004200082058FEFE81AF80A085F1F4FDACF269689
:100430000FB6F894DEBF0FBECDBFDF91CF911F91F5
:100440000F91FF90EF90DF90CF9008952F923F9201
:100450004F925F926F927F928F929F92AF92BF92D4
:10046000CF92DF92EF92FF920F931F93CF93DF9380
:100470001F92CDB7DEB7182F862E7A0128E0629F33
:10048000C00111240E94EF0B1C01111153C07724ED
:100490007394912C482EF6E05F2E581AA101682D16
:1004A000872D0E94C7018101C12CD12C612CA02E67
:1004B000602F64196814B1F120E030E0C6018E0DA0
:1004C0009F1D462F420FDC01A20FB31FF101E40F65
:1004D000F11D7081418150E0542F4427470F511D79
:1004E0004D935C932E5F3F4F2630310551F7A50C9D
:1004F000B12CB80186E00E94B200F101EA0DFB1DAB
:10050000208130E0322F22274181240F311D28170E
:10051000390709F09A946394085F1F4F88E1C80E69
:10052000D11CC5CF7394E6E0EE0EF11CF5E07F120E
:10053000B5CF58C0AC01682D812F0E94C701812F13
:1005400090E001976C01B3E0CC0CDD1CBA95E1F7AB
:1005500031018C01000F111F080F191F000F111F0F
:100560000E0D1F1DE12CF12C512C40E0912C581444
:10057000C9F1B701600F711F80E090E0242F280FB0
:10058000FB01E80FF91FD101A20FB11D5C9111967B
:100590002C9130E0322F2227250F311D318320830B
:1005A00002968630910551F74A5FA42EB12CB30113
:1005B00086E049830E94B200F101EA0DFB1D208113
:1005C00030E0322F22275181250F311D4981281714
:1005D000390709F09A9453946C0C7D1C28E1E20EC3
:1005E000F11CC5CFC1010E94870C892D0F90DF91AE
:1005F000CF911F910F91FF90EF90DF90CF90BF9020
:10060000AF909F908F907F906F905F904F903F90B2
:100610002F90089561E08AE00E94820561E088E001
:100620000E94490560E088E00C948205CF93DF9337
:100630001F92CDB7DEB789830E940F042CB5898144
:10064000982F93702C7F922B9CBD9DB582FB8827A1
:1006500080F99E7F982B9DBD0F90DF91CF910895DB
:100660008EBD0DB407FEFDCF08958EBD0DB407FEFF
:10067000FDCF8EB5089584E08093BC031092BD0336
:100680001092BE031092BF031092C00380E18093CA
:10069000C10308950F931F93CF93DF9366E073E038
:1006A0008CEC93E00E94E0074AE050E061E070E0EB
:1006B0008CEC93E00E94A20800EA13E0C0E0D0E0D6
:1006C0006BE073E08CEC93E00E94E00721964AE037
:1006D00050E0BE018CEC93E00E94A2086EE073E053
:1006E0008CEC93E00E94E007F801619171918F0119
:1006F00080E090E00E94AA0A27E137EB41ED58E341
:100700000E94600BAB01BC0124E030E08CEC93E074
:100710000E94950960E173E08CEC93E00E94E00791
:10072000CC30D10569F68CEC93E0DF91CF911F912D
:100730000F910C94E90726E040E052EC61E070E094
:100740008CEC93E00E949B060E9487000C943B0374
:1007500062E173E08CEC93E00E94ED070E94A4003C
:100760006CEB73E081E00E9410018091B8039091DE
:10077000B9038D36910509F451C08CEC93E00E94C9
:10078000B8051816190644F48CEC93E00E94B805DD
:100790009093B9038093B8030E9498000E94E600EA
:1007A0006AE070E080E090E00E94B2040E9498004D
:1007B00040EA53E061E080E00E94260290E09093DE
:1007C000BB038093BA038F3F9105D9F46FE373E0C5
:1007D0008CEC93E00E94ED078091BA039091BB03EB
:1007E0008F3F9105A1F440EA53E061E080E00E9470
:1007F000260290E09093BB038093BA036DE673E00A
:10080000E7CF0E944A038CEC93E00E94E90764EF73
:1008100071E080E090E00E94B204A7CF0895CF93EA
:10082000CFB7F8948091C203811127C0EAE9F0E0C4
:100830008491E6E8F0E09491E82FF0E0EE0FFF1FDE
:10084000E255FF4FA591B4918C91892321F461E089
:100850008AE00E94820561E08AE00E9449058CB529
:1008600080618CBD8CB580648CBD61E08DE00E94A0
:10087000490561E08BE00E9449058091C2038F5FCA
:100880008093C203CFBFCF9108951F920F920FB6EE
:100890000F9211242F933F938F939F93AF93BF9306
:1008A0008091C4039091C503A091C603B091C70382
:1008B0003091C30323E0230F2D3720F40196A11DAF
:1008C000B11D05C026E8230F0296A11DB11D20937E
:1008D000C3038093C4039093C503A093C603B0934E
:1008E000C7038091C8039091C903A091CA03B09136
:1008F000CB030196A11DB11D8093C8039093C9033A
:10090000A093CA03B093CB03BF91AF919F918F91F6
:100910003F912F910F900FBE0F901F9018953FB7EA
:10092000F8948091C8039091C903A091CA03B09133
:10093000CB0326B5A89B05C02F3F19F00196A11D3A
:10094000B11D3FBF6627782F892F9A2F620F711D27
:10095000811D911D42E0660F771F881F991F4A95E0
:10096000D1F70895CF92DF92EF92FF92CF93DF936A
:100970006B017C010E948F04EB01C114D104E104DE
:10098000F10489F00E94A7090E948F046C1B7D0B63
:10099000683E734090F381E0C81AD108E108F1087D
:1009A000C851DC4FEACFDF91CF91FF90EF90DF90FD
:1009B000CF9008958230910538F0880F991F880FE5
:1009C000991F05970197F1F70895789484B582608F
:1009D00084BD84B5816084BD85B5826085BD85B5E3
:1009E000816085BDEEE6F0E0808181608083E1E892
:1009F000F0E01082808182608083808181608083CA
:100A0000E0E8F0E0808181608083E1EBF0E08081CC
:100A100084608083E0EBF0E0808181608083EAE79E
:100A2000F0E0808184608083808182608083808127
:100A3000816080838081806880831092C1000895E6
:100A4000833081F028F4813099F08230A1F008954C
:100A50008730A9F08830B9F08430D1F480918000DB
:100A60008F7D03C0809180008F77809380000895F0
:100A700084B58F7702C084B58F7D84BD0895809141
:100A8000B0008F7703C08091B0008F7D8093B0005D
:100A90000895CF93DF9390E0FC01E458FF4F249139
:100AA000FC01E057FF4F8491882349F190E0880FC3
:100AB000991FFC01E255FF4FA591B4918C559F4FB2
:100AC000FC01C591D4919FB7611108C0F8948C9135
:100AD000209582238C93888182230AC0623051F44E
:100AE000F8948C91322F309583238C938881822BBC
:100AF000888304C0F8948C91822B8C939FBFDF91E4
:100B0000CF9108950F931F93CF93DF931F92CDB78B
:100B1000DEB7282F30E0F901E859FF4F8491F90141
:100B2000E458FF4F1491F901E057FF4F049100235F
:100B3000C9F0882321F069830E9420056981E02F94
:100B4000F0E0EE0FFF1FEC55FF4FA591B4919FB75A
:100B5000F8948C91611103C01095812301C0812B01
:100B60008C939FBF0F90DF91CF911F910F910895AC
:100B7000FC01818D228D90E0805C9F4F821B91094A
:100B80008F7399270895FC01918D828D981731F00C
:100B9000828DE80FF11D858D90E008958FEF9FEF16
:100BA0000895FC01918D828D981761F0828DDF018F
:100BB000A80FB11D5D968C91928D9F5F9F73928F50
:100BC00090E008958FEF9FEF089585E597E0892BDA
:100BD00049F080E090E0892B29F00E9455078111AF
:100BE0000C9400000895FC01848DDF01A80FB11D55
:100BF000A35ABF4F2C91848D90E001968F73992753
:100C0000848FA689B7892C93A089B1898C9180643F
:100C10008C93938D848D981306C00288F389E02D00
:100C200080818F7D80830895CF93DF93EC01888D41
:100C30008823C9F0EA89FB89808185FD05C0A889E0
:100C4000B9898C9186FD0FC00FB607FCF5CF808166
:100C500085FFF2CFA889B9898C9185FFEDCFCE01B0
:100C60000E94F305E7CFDF91CF910895CF92DF92F5
:100C7000FF920F931F93CF93DF931F92CDB7DEB7F1
:100C80006C0181E0D60158968C9358975B969C91A5
:100C90005B975C968C915C97981307C05096ED918A
:100CA000FC915197808185FD2EC0F601038D10E0E7
:100CB0000F5F1F4F0F731127F02EF601848DF8126E
:100CC00011C00FB607FCF9CFD6015096ED91FC91FB
:100CD0005197808185FFF1CFC60169830E94F3059A
:100CE0006981EBCF838DE80FF11DE35AFF4F6083DD
:100CF000D6015B960C935B975296ED91FC915397BE
:100D0000808180620CC0D6015696ED91FC91579778
:100D100060835096ED91FC9151978081806480832F
:100D200081E090E00F90DF91CF911F910F91FF90A4
:100D3000DF90CF900895BF92CF92DF92EF92FF9213
:100D4000CF93DF93EC016A017B01B22EE889F98928
:100D500082E08083411581EE580761057105A1F09D
:100D600060E079E08DE390E0A70196010E94C70B57
:100D700021503109410951095695479537952795D5
:100D8000211580E1380798F0E889F989108260E838
:100D900074E88EE190E0A70196010E94C70B2150F4
:100DA0003109410951095695479537952795EC85A5
:100DB000FD853083EE85FF852083188EEC89FD89C3
:100DC000B082EA89FB89808180618083EA89FB891E
:100DD000808188608083EA89FB8980818068808344
:100DE000EA89FB8980818F7D8083DF91CF91FF909D
:100DF000EF90DF90CF90BF9008951F920F920FB6A3
:100E00000F9211242F938F939F93EF93FF93E09171
:100E1000DC03F091DD038081E091E203F091E303D4
:100E200082FD12C090818091E5038F5F8F732091C6
:100E3000E603821751F0E091E503F0E0E453FC4F44
:100E4000958F8093E50301C08081FF91EF919F9181
:100E50008F912F910F900FBE0F901F9018951F929A
:100E60000F920FB60F9211242F933F934F935F93DE
:100E70006F937F938F939F93AF93BF93EF93FF9362
:100E80008CEC93E00E94F305FF91EF91BF91AF913D
:100E90009F918F917F916F915F914F913F912F9192
:100EA0000F900FBE0F901F9018958CEC93E00E944E
:100EB000B80521E0892B09F420E0822F08951092D3
:100EC000CF031092CE0388EE93E0A0E0B0E08093D1
:100ED000D0039093D103A093D203B093D30380E8BF
:100EE00093E09093CD038093CC0385EC90E09093B6
:100EF000D9038093D80384EC90E09093DB03809334
:100F0000DA0380EC90E09093DD038093DC0381ECC6
:100F100090E09093DF038093DE0382EC90E0909367
:100F2000E1038093E00386EC90E09093E3038093E9
:100F3000E2031092E5031092E6031092E703109289
:100F4000E8030895CF92DF92EF92FF920F931F93E1
:100F5000CF93DF937C016A01EB0100E010E00C15F8
:100F60001D0571F06991D701ED91FC910190F0811F
:100F7000E02DC7010995892B19F00F5F1F4FEFCFA7
:100F8000C801DF91CF911F910F91FF90EF90DF90FB
:100F9000CF9008956115710581F0DB010D9000205F
:100FA000E9F7AD0141505109461B570BDC01ED91AA
:100FB000FC910280F381E02D099480E090E0089597
:100FC0000C94CA07DC01ED91FC910190F081E02DB9
:100FD00009946CE873E00C94CA070F931F93CF93A6
:100FE000DF93EC010E94CA078C01CE010E94E90741
:100FF000800F911FDF91CF911F910F9108958F92D4
:101000009F92AF92BF92CF92DF92EF92FF920F9397
:101010001F93CF93DF93CDB7DEB7A1970FB6F894A8
:10102000DEBF0FBECDBF7C01C42EE52FCB01D22E7B
:1010300019A221E02D1510F02AE0D22E8E010F5DAD
:101040001F4F8D2C912CA12CB12C6C2D7E2FA50126
:1010500094010E94C70B8C2DD29E8019112401503F
:1010600011098A3014F4805D01C0895CF801808325
:10107000211531054105510521F0C22EE32FCA018A
:10108000E4CFB801C7010E94CA07A1960FB6F89431
:10109000DEBF0FBECDBFDF91CF911F910F91FF90AB
:1010A000EF90DF90CF90BF90AF909F908F9008957A
:1010B000CF92DF92EF92FF920F931F93CF93DF9324
:1010C000EC016A017B012115310579F4E881F98190
:1010D0000190F081E02D642FDF91CF911F910F914E
:1010E000FF90EF90DF90CF9009942A303105E9F41A
:1010F00077FF1AC06DE20E94E2078C014427552752
:10110000BA014C195D096E097F092AE0CE010E94DF
:10111000FF07800F911FDF91CF911F910F91FF90DB
:10112000EF90DF90CF9008952AE0B701A601CE019D
:10113000DF91CF911F910F91FF90EF90DF90CF90B3
:101140000C94FF079A01AB01662757FD6095762F37
:101150000C9458084F925F926F927F928F929F9259
:10116000AF92BF92CF92DF92EF92FF920F931F93B5
:10117000CF93DF93EC016A017B01B22E9A01AB01A0
:10118000C701B6010E94C30B882319F06FE873E012
:1011900027C026013701E89477F82FEF3FEF4FE79C
:1011A0005FE7C301B2010E94C30B81110DC02FEF95
:1011B0003FEF4FE75FE7C301B2010E940D0A181627
:1011C0001CF463E973E00CC02FEF3FEF4FE75FE4DF
:1011D000C701B6010E945C0B1816ACF467E973E016
:1011E000CE01DF91CF911F910F91FF90EF90DF9093
:1011F000CF90BF90AF909F908F907F906F905F90B7
:101200004F900C94CA072FEF3FEF4FE75FECC701F9
:10121000B6010E940D0A87FDE1CF20E030E0A90170
:10122000C701B6010E940D0A87FF0AC06DE2CE0118
:101230000E94E2078C01F7FAF094F7F8F09402C0EC
:1012400000E010E0A12C60E070E080E09FE3AB14D0
:1012500041F020E030E040E251E40E94110AA39402
:10126000F6CF9B01AC01C701B6010E94A9096B0131
:101270007C010E947E0A2B013C010E94AA0A9B016C
:10128000AC01C701B6010E94A8096B017C012AE0EC
:10129000B301A201CE010E94FF07080F191FBB2056
:1012A00039F06DE373E0CE010E94CA07080F191FE1
:1012B0007B2C772041F120E030E040E251E4C7018F
:1012C000B6010E94600B6B017C010E94790A4B0100
:1012D000AA2497FCA094BA2C2AE030E0B501A4011E
:1012E000CE010E945808080F191FC501B4010E94C1
:1012F000AC0A9B01AC01C701B6010E94A8096B01B1
:101300007C017A94D6CFC801DF91CF911F910F91C4
:10131000FF90EF90DF90CF90BF90AF909F908F9015
:101320007F906F905F904F9008950C94AA08089555
:101330000E94E5040E9497090E949B03C5EED5E038
:101340000E94A8032097E1F30E94E505F9CF0895D4
:101350005058BB27AA270ED075C166D130F06BD18B
:1013600020F031F49F3F11F41EF45BC10EF4E095C0
:10137000E7FB51C1E92F77D180F3BA1762077307F2
:101380008407950718F071F49EF58FC10EF4E0956F
:101390000B2EBA2FA02D0B01B90190010C01CA012F
:1013A000A0011124FF27591B99F0593F50F4503EDA
:1013B00068F11A16F040A22F232F342F4427585FCC
:1013C000F3CF469537952795A795F0405395C9F7E4
:1013D0007EF41F16BA0B620B730B840BBAF091509C
:1013E000A1F0FF0FBB1F661F771F881FC2F70EC03B
:1013F000BA0F621F731F841F48F48795779567950E
:10140000B795F7959E3F08F0B3CF9395880F08F0F6
:101410009927EE0F979587950895D9D008F481E024
:1014200008950CD00FC107D140F0FED030F021F468
:101430005F3F19F0F0C0511139C1F3C014D198F3D6
:101440009923C9F35523B1F3951B550BBB27AA2745
:1014500062177307840738F09F5F5F4F220F331FB7
:10146000441FAA1FA9F333D00E2E3AF0E0E830D083
:1014700091505040E695001CCAF729D0FE2F27D086
:10148000660F771F881FBB1F261737074807AB0754
:10149000B0E809F0BB0B802DBF01FF2793585F4FC9
:1014A0002AF09E3F510568F0B6C000C15F3FECF3E3
:1014B000983EDCF3869577956795B795F7959F5F8E
:1014C000C9F7880F911D9695879597F90895E1E0E2
:1014D000660F771F881FBB1F621773078407BA0741
:1014E00020F0621B730B840BBA0BEE1F88F7E0959C
:1014F000089504D06894B111D9C00895BCD088F083
:101500009F5790F0B92F9927B751A0F0D1F0660FEF
:10151000771F881F991F1AF0BA95C9F712C0B1300A
:1015200081F0C3D0B1E00895C0C0672F782F88271D
:10153000B85F39F0B93FCCF3869577956795B39549
:10154000D9F73EF490958095709561957F4F8F4FB8
:101550009F4F0895E89409C097FB3EF490958095BD
:10156000709561957F4F8F4F9F4F9923A9F0F92F69
:1015700096E9BB279395F695879577956795B795E7
:10158000F111F8CFFAF4BB0F11F460FF1BC06F5FCD
:101590007F4F8F4F9F4F16C0882311F096E911C0DF
:1015A000772321F09EE8872F762F05C0662371F000
:1015B00096E8862F70E060E02AF09A95660F771F14
:1015C000881FDAF7880F9695879597F90895990FF0
:1015D0000008550FAA0BE0E8FEEF16161706E807FD
:1015E000F907C0F012161306E407F50798F0621B1E
:1015F000730B840B950B39F40A2661F0232B242BF3
:10160000252B21F408950A2609F4A140A6958FEF11
:10161000811D811D089597F99F6780E870E060E063
:1016200008959FEF80EC089500240A94161617067B
:1016300018060906089500240A94121613061406C3
:1016400005060895092E0394000C11F4882352F026
:10165000BB0F40F4BF2B11F460FF04C06F5F7F4FDE
:101660008F4F9F4F089557FD9058440F551F59F0C5
:101670005F3F71F04795880F97FB991F61F09F3F7F
:1016800079F087950895121613061406551FF2CFA8
:101690004695F1DF08C0161617061806991FF1CFF8
:1016A00086957105610508940895E894BB2766271F
:1016B0007727CB0197F908958ADF08F48FEF089513
:1016C0000BD0C0CFB1DF28F0B6DF18F0952309F0BA
:1016D000A2CFA7CF1124EACFC6DFA0F3959FD1F305
:1016E000950F50E0551F629FF001729FBB27F00DD0
:1016F000B11D639FAA27F00DB11DAA1F649F662725
:10170000B00DA11D661F829F2227B00DA11D621F73
:10171000739FB00DA11D621F839FA00D611D221F2D
:10172000749F3327A00D611D231F849F600D211D11
:10173000822F762F6A2F11249F5750408AF0E1F0B4
:1017400088234AF0EE0FFF1FBB1F661F771F881FFD
:1017500091505040A9F79E3F510570F05CCFA6CF45
:101760005F3FECF3983EDCF3869577956795B795E8
:10177000F795E7959F5FC1F7FE2B880F911D969512
:10178000879597F9089523DF880B990B0895A1E2B7
:101790001A2EAA1BBB1BFD010DC0AA1FBB1FEE1FEB
:1017A000FF1FA217B307E407F50720F0A21BB30B36
:1017B000E40BF50B661F771F881F991F1A9469F7B2
:1017C00060957095809590959B01AC01BD01CF010E
:1017D0000895EE0FFF1F0590F491E02D0994CF932B
:1017E000DF938230910510F482E090E0E0916B0489
:1017F000F0916C0420E030E0A0E0B0E0309739F1E7
:101800004081518148175907B8F04817590771F4BA
:1018100082819381109729F013969C938E9312974F
:101820002CC090936C0480936B0427C02115310564
:1018300031F04217530718F0A901DB0101C0EF0195
:101840009A01BD01DF010280F381E02DD7CF211580
:101850003105F9F0281B390B2430310580F48A81D9
:101860009B816115710521F0FB019383828304C084
:1018700090936C0480936B04FE01329644C0FE0189
:10188000E20FF31F8193919322503109398328830A
:101890003AC02091690430916A04232B41F42091CD
:1018A00002013091030130936A042093690420916E
:1018B0000001309101012115310541F42DB73EB7EA
:1018C0004091040150910501241B350BE0916904FE
:1018D000F0916A04E217F307A0F42E1B3F0B2817C0
:1018E000390778F0AC014E5F5F4F2417350748F099
:1018F0004E0F5F1F50936A04409369048193919344
:1019000002C0E0E0F0E0CF01DF91CF910895CF93E6
:10191000DF93009709F487C0FC013297138212828B
:10192000C0916B04D0916C04209781F420813181A7
:10193000280F391F8091690490916A0482179307D8
:1019400079F5F0936A04E09369046DC0DE0120E04C
:1019500030E0AE17BF0750F412964D915C9113978B
:101960009D014115510509F1DA01F3CFB383A2833B
:1019700040815181840F951F8A179B0771F48D91C7
:101980009C911197840F951F0296918380831296E4
:101990008D919C911397938382832115310529F4AE
:1019A000F0936C04E0936B043EC0D9011396FC9352
:1019B000EE9312974D915D91A40FB51FEA17FB07A7
:1019C00079F480819181840F951F0296D901119637
:1019D0009C938E938281938113969C938E931297FE
:1019E000E0E0F0E08A819B81009719F0FE01EC01B4
:1019F000F9CFCE01029628813981820F931F209161
:101A0000690430916A042817390769F4309729F47A
:101A100010926C0410926B0402C013821282D09355
:101A20006A04C0936904DF91CF910895F894FFCFC1
:101A300000006D048000000099C5ABCE320BCFD8FA
:101A4000561D6416FDD307F49E31AC3A35FFC82C01
:101A500051E963E2FA2797AD0E683C63A5A6587575
:101A6000C1B0F3BB6A7E9059099C3B97A2525F813B
:101A7000C644F44F6D8A2E5BB79E85951C50E1835A
:101A800078464A4DD38829AFB06A82611BA4E677B5
:101A90007FB24DB9D47CB9F6203312388BFD762E47
:101AA000EFEBDDE04425BE0227C715CC8C0971DAC7
:101AB000E81FDA1443D1C5F35C366E3DF7F80A2B04
:101AC00093EEA1E53820C2075BC269C9F00C0DDFB7
:101AD000941AA6113FD4525ECB9BF99060559D8617
:101AE00004433648AF8D55AACC6FFE6467A19A7245
:101AF00003B731BCA879EBA8726D4066D9A32470F6
:101B0000BDB58FBE167BEC5C75994792DE5723847A
:101B1000BA41884A118F7C05E5C0D7CB4E0EB3DDA4
:101B20002A18181381D67BF1E234D03F49FAB42940
:101B30002DEC1FE7862213A28A67B86C21A9DC7AF4
:101B400045BF77B4EE7114568D93BF98265DDB8E3A
:101B5000424B7040E985840F1DCA2FC1B6044BD794
:101B6000D212E01979DC83FB1A3E2835B1F04C2300
:101B7000D5E6E7ED7E283DF9A43C96370FF2F22139
:101B80006BE459EFC02A3A0DA3C891C30806F5D5F6
:101B90006C105E1BC7DEAA543391019A985F658C66
:101BA000FC49CE425787ADA03465066E9FAB627884
:101BB000FBBDC9B65073D6514F947D9FE45A198925
:101BC000804CB2472B82D1A548607A6BE3AE1E7D74
:101BD00087B8B5B32C7641FCD839EA3273F78E2436
:101BE00017E125EABC2F4608DFCDEDC6740389D086
:101BF0001015221EBBDBF80A61CF53C4CA0137D2CD
:101C0000AE179C1C05D9FFFE663B5430CDF530263F
:101C1000A9E39BE8022D6FA7F662C4695DACA07FC3
:101C200039BA0BB192746853F196C39D5A58A78B79
:101C30003E4E0C45958020494320002043003A0049
:101C40002C005374617274696E6720766F6C7461D6
:101C50006765206C6F6F702E205472616E736D69B2
:101C60007420276D2720746F20717569742E0041D0
:101C700020504543206572726F7220776173206433
:101C80006574656374656420696E2074686520728C
:101C9000656365697665642064617461004572728C
:101CA0006F72204465746563746564000000000011
:101CB0003606A207B805D105C30514060D0A006E45
:0C1CC000616E00696E66006F76660000C1
:00000001FF
